{
  "contractName": "Remittance",
  "abi": [
    {
      "constant": true,
      "inputs": [],
      "name": "owner",
      "outputs": [
        {
          "name": "",
          "type": "address"
        }
      ],
      "payable": false,
      "stateMutability": "view",
      "type": "function"
    },
    {
      "constant": true,
      "inputs": [],
      "name": "deadLine",
      "outputs": [
        {
          "name": "",
          "type": "uint256"
        }
      ],
      "payable": false,
      "stateMutability": "view",
      "type": "function"
    },
    {
      "constant": true,
      "inputs": [
        {
          "name": "",
          "type": "bytes32"
        }
      ],
      "name": "hashExchangeMapper",
      "outputs": [
        {
          "name": "amount",
          "type": "uint256"
        },
        {
          "name": "exchange",
          "type": "address"
        }
      ],
      "payable": false,
      "stateMutability": "view",
      "type": "function"
    },
    {
      "anonymous": false,
      "inputs": [
        {
          "indexed": false,
          "name": "exchangeAddress",
          "type": "address"
        },
        {
          "indexed": false,
          "name": "valueSent",
          "type": "uint256"
        }
      ],
      "name": "Remit",
      "type": "event"
    },
    {
      "anonymous": false,
      "inputs": [
        {
          "indexed": false,
          "name": "exchangeAddress",
          "type": "address"
        },
        {
          "indexed": false,
          "name": "amountWithDraw",
          "type": "uint256"
        }
      ],
      "name": "WithDraw",
      "type": "event"
    },
    {
      "anonymous": false,
      "inputs": [
        {
          "indexed": false,
          "name": "exchangeAddress",
          "type": "address"
        },
        {
          "indexed": false,
          "name": "amountWithDraw",
          "type": "uint256"
        }
      ],
      "name": "WarningToWithDrawBeforeRemit",
      "type": "event"
    },
    {
      "constant": true,
      "inputs": [
        {
          "name": "password1",
          "type": "bytes32"
        },
        {
          "name": "password2",
          "type": "bytes32"
        }
      ],
      "name": "getHash",
      "outputs": [
        {
          "name": "",
          "type": "bytes32"
        }
      ],
      "payable": false,
      "stateMutability": "pure",
      "type": "function"
    },
    {
      "constant": false,
      "inputs": [
        {
          "name": "hash",
          "type": "bytes32"
        }
      ],
      "name": "remit",
      "outputs": [],
      "payable": true,
      "stateMutability": "payable",
      "type": "function"
    },
    {
      "constant": false,
      "inputs": [
        {
          "name": "hash",
          "type": "bytes32"
        }
      ],
      "name": "withdraw",
      "outputs": [],
      "payable": false,
      "stateMutability": "nonpayable",
      "type": "function"
    }
  ],
  "bytecode": "0x6060604052336000806101000a81548173ffffffffffffffffffffffffffffffffffffffff021916908373ffffffffffffffffffffffffffffffffffffffff160217905550610602806100536000396000f300606060405260043610610078576000357c0100000000000000000000000000000000000000000000000000000000900463ffffffff1680631fcf4de91461007d57806380c9597f146100995780638da5cb5b146100e95780638e19899e1461013e578063bef3a08314610165578063f6d20ab31461018e575b600080fd5b6100976004808035600019169060200190919050506101fc565b005b34156100a457600080fd5b6100cb60048080356000191690602001909190803560001916906020019091905050610382565b60405180826000191660001916815260200191505060405180910390f35b34156100f457600080fd5b6100fc6103ba565b604051808273ffffffffffffffffffffffffffffffffffffffff1673ffffffffffffffffffffffffffffffffffffffff16815260200191505060405180910390f35b341561014957600080fd5b6101636004808035600019169060200190919050506103df565b005b341561017057600080fd5b61017861055c565b6040518082815260200191505060405180910390f35b341561019957600080fd5b6101b3600480803560001916906020019091905050610562565b604051808381526020018273ffffffffffffffffffffffffffffffffffffffff1673ffffffffffffffffffffffffffffffffffffffff1681526020019250505060405180910390f35b6102046105a6565b60003411151561021357600080fd5b60006001026000191682600019161415151561022e57600080fd5b60006002600084600019166000191681526020019081526020016000206000015414151561025b57600080fd5b33816020019073ffffffffffffffffffffffffffffffffffffffff16908173ffffffffffffffffffffffffffffffffffffffff168152505034816000018181510191508181525050806002600084600019166000191681526020019081526020016000206000820151816000015560208201518160010160006101000a81548173ffffffffffffffffffffffffffffffffffffffff021916908373ffffffffffffffffffffffffffffffffffffffff1602179055509050507f52018e982be9c725cb458e2bc5d2aba71320f83e4df94cbca40b11405d8f01b03334604051808373ffffffffffffffffffffffffffffffffffffffff1673ffffffffffffffffffffffffffffffffffffffff1681526020018281526020019250505060405180910390a15050565b600082826040518083600019166000191681526020018260001916600019168152602001925050506040518091039020905092915050565b6000809054906101000a900473ffffffffffffffffffffffffffffffffffffffff1681565b600060026000836000191660001916815260200190815260200160002060000154905060008111151561041157600080fd5b3373ffffffffffffffffffffffffffffffffffffffff1660026000846000191660001916815260200190815260200160002060010160009054906101000a900473ffffffffffffffffffffffffffffffffffffffff1673ffffffffffffffffffffffffffffffffffffffff1614151561048957600080fd5b6000600260008460001916600019168152602001908152602001600020600001819055503373ffffffffffffffffffffffffffffffffffffffff166108fc829081150290604051600060405180830381858888f1935050505015156104ed57600080fd5b7f14b43ca4c63c5423006ad978eab8a14386476b52f1d4728070ea20a36f13e83b3382604051808373ffffffffffffffffffffffffffffffffffffffff1673ffffffffffffffffffffffffffffffffffffffff1681526020018281526020019250505060405180910390a15050565b60015481565b60026020528060005260406000206000915090508060000154908060010160009054906101000a900473ffffffffffffffffffffffffffffffffffffffff16905082565b604080519081016040528060008152602001600073ffffffffffffffffffffffffffffffffffffffff16815250905600a165627a7a72305820f46ff903498ccb26a4f0ba22f24238e8ed669b03af8b86b8ee09f165715682c80029",
  "source": "pragma solidity ^0.4.17;\n\nimport \"./Ownable.sol\";\ncontract Remittance  is Ownable {\n    \n    uint public deadLine;\n\n     struct ExchangeType {\n        uint amount;\n        address exchange;\n     }\n    mapping(bytes32 => ExchangeType) public hashExchangeMapper;\n    \n    event Remit(address exchangeAddress, uint valueSent);\n    event WithDraw(address exchangeAddress, uint amountWithDraw);\n    event WarningToWithDrawBeforeRemit(address exchangeAddress, uint amountWithDraw);\n    \n    function getHash(bytes32 password1,bytes32 password2) public pure returns(bytes32) {\n        return  keccak256(password1,password2);\n    }\n    \n    function remit(bytes32 hash) public payable {\n        require(msg.value>0);\n        require(hash!=bytes32(0));\n        require(hashExchangeMapper[hash].amount==0);\n\n       ExchangeType memory exchangeType;\n       exchangeType.exchange = msg.sender;\n       exchangeType.amount += msg.value;\n       hashExchangeMapper[hash] = exchangeType;\n       Remit(msg.sender,msg.value);\n        \n    }\n     \n   function withdraw(bytes32 hash) public {\n      //Check if the amount is present and greater than zero.\n    uint  amount = hashExchangeMapper[hash].amount;\n    require(amount>0);\n    require(hashExchangeMapper[hash].exchange == msg.sender);\n\n    //Change state before transer\n    hashExchangeMapper[hash].amount = 0;\n    //Send the amount\n    msg.sender.transfer(amount);\n    WithDraw(msg.sender,amount);\n\n  } \n}",
  "sourcePath": "/home/rviparla/DAPPS/Project2/contracts/Remittance.sol",
  "compiler": {
    "name": "solc",
    "version": "0.4.19+commit.c4cbbb05.Emscripten.clang"
  },
  "schemaVersion": "2.0.0",
  "updatedAt": "2018-03-14T05:32:38.866Z"
}