{
  "contractName": "Remittance",
  "abi": [
    {
      "constant": true,
      "inputs": [],
      "name": "owner",
      "outputs": [
        {
          "name": "",
          "type": "address"
        }
      ],
      "payable": false,
      "stateMutability": "view",
      "type": "function"
    },
    {
      "constant": true,
      "inputs": [],
      "name": "deadLine",
      "outputs": [
        {
          "name": "",
          "type": "uint256"
        }
      ],
      "payable": false,
      "stateMutability": "view",
      "type": "function"
    },
    {
      "constant": true,
      "inputs": [
        {
          "name": "",
          "type": "bytes32"
        }
      ],
      "name": "hashExchangeMapper",
      "outputs": [
        {
          "name": "amount",
          "type": "uint256"
        },
        {
          "name": "exchange",
          "type": "address"
        }
      ],
      "payable": false,
      "stateMutability": "view",
      "type": "function"
    },
    {
      "anonymous": false,
      "inputs": [
        {
          "indexed": false,
          "name": "sender",
          "type": "address"
        },
        {
          "components": [
            {
              "name": "amount",
              "type": "uint256"
            },
            {
              "name": "exchange",
              "type": "address"
            }
          ],
          "indexed": false,
          "name": "exchangeType",
          "type": "tuple"
        },
        {
          "indexed": false,
          "name": "hash",
          "type": "bytes32"
        }
      ],
      "name": "LogRemit",
      "type": "event"
    },
    {
      "anonymous": false,
      "inputs": [
        {
          "indexed": false,
          "name": "exchangeAddress",
          "type": "address"
        },
        {
          "indexed": false,
          "name": "amountWithDraw",
          "type": "uint256"
        }
      ],
      "name": "LogWithDraw",
      "type": "event"
    },
    {
      "anonymous": false,
      "inputs": [
        {
          "indexed": false,
          "name": "exchangeAddress",
          "type": "address"
        },
        {
          "indexed": false,
          "name": "amountWithDraw",
          "type": "uint256"
        }
      ],
      "name": "LogWarningToWithDrawBeforeRemit",
      "type": "event"
    },
    {
      "constant": true,
      "inputs": [
        {
          "name": "exchange",
          "type": "address"
        },
        {
          "name": "password1",
          "type": "bytes32"
        },
        {
          "name": "password2",
          "type": "bytes32"
        }
      ],
      "name": "getHash",
      "outputs": [
        {
          "name": "",
          "type": "bytes32"
        }
      ],
      "payable": false,
      "stateMutability": "pure",
      "type": "function"
    },
    {
      "constant": false,
      "inputs": [
        {
          "name": "hash",
          "type": "bytes32"
        },
        {
          "name": "exchange",
          "type": "address"
        }
      ],
      "name": "remit",
      "outputs": [],
      "payable": true,
      "stateMutability": "payable",
      "type": "function"
    },
    {
      "constant": false,
      "inputs": [
        {
          "name": "hash",
          "type": "bytes32"
        }
      ],
      "name": "withdraw",
      "outputs": [],
      "payable": false,
      "stateMutability": "nonpayable",
      "type": "function"
    }
  ],
  "bytecode": "0x6060604052336000806101000a81548173ffffffffffffffffffffffffffffffffffffffff021916908373ffffffffffffffffffffffffffffffffffffffff16021790555061070c806100536000396000f300606060405260043610610078576000357c0100000000000000000000000000000000000000000000000000000000900463ffffffff16806389bfe72a1461007d5780638da5cb5b146100ec5780638e19899e14610141578063bef3a08314610168578063c3389d6914610191578063f6d20ab3146101cc575b600080fd5b341561008857600080fd5b6100ce600480803573ffffffffffffffffffffffffffffffffffffffff16906020019091908035600019169060200190919080356000191690602001909190505061023a565b60405180826000191660001916815260200191505060405180910390f35b34156100f757600080fd5b6100ff6102b6565b604051808273ffffffffffffffffffffffffffffffffffffffff1673ffffffffffffffffffffffffffffffffffffffff16815260200191505060405180910390f35b341561014c57600080fd5b6101666004808035600019169060200190919050506102db565b005b341561017357600080fd5b61017b610458565b6040518082815260200191505060405180910390f35b6101ca60048080356000191690602001909190803573ffffffffffffffffffffffffffffffffffffffff1690602001909190505061045e565b005b34156101d757600080fd5b6101f160048080356000191690602001909190505061066c565b604051808381526020018273ffffffffffffffffffffffffffffffffffffffff1673ffffffffffffffffffffffffffffffffffffffff1681526020019250505060405180910390f35b6000838383604051808473ffffffffffffffffffffffffffffffffffffffff1673ffffffffffffffffffffffffffffffffffffffff166c01000000000000000000000000028152601401836000191660001916815260200182600019166000191681526020019350505050604051809103902090509392505050565b6000809054906101000a900473ffffffffffffffffffffffffffffffffffffffff1681565b600060026000836000191660001916815260200190815260200160002060000154905060008111151561030d57600080fd5b3373ffffffffffffffffffffffffffffffffffffffff1660026000846000191660001916815260200190815260200160002060010160009054906101000a900473ffffffffffffffffffffffffffffffffffffffff1673ffffffffffffffffffffffffffffffffffffffff1614151561038557600080fd5b6000600260008460001916600019168152602001908152602001600020600001819055507fa74fab966bfc29d4ea7866d609ac5d94324a5fe817362d6a9fee5d2f8df467593382604051808373ffffffffffffffffffffffffffffffffffffffff1673ffffffffffffffffffffffffffffffffffffffff1681526020018281526020019250505060405180910390a13373ffffffffffffffffffffffffffffffffffffffff166108fc829081150290604051600060405180830381858888f19350505050151561045457600080fd5b5050565b60015481565b6104666106b0565b60003411151561047557600080fd5b60006001026000191683600019161415151561049057600080fd5b6000600260008560001916600019168152602001908152602001600020600001541415156104bd57600080fd5b600073ffffffffffffffffffffffffffffffffffffffff168273ffffffffffffffffffffffffffffffffffffffff16141515156104f957600080fd5b8173ffffffffffffffffffffffffffffffffffffffff163373ffffffffffffffffffffffffffffffffffffffff161415151561053457600080fd5b81816020019073ffffffffffffffffffffffffffffffffffffffff16908173ffffffffffffffffffffffffffffffffffffffff168152505034816000018181510191508181525050806002600085600019166000191681526020019081526020016000206000820151816000015560208201518160010160006101000a81548173ffffffffffffffffffffffffffffffffffffffff021916908373ffffffffffffffffffffffffffffffffffffffff1602179055509050507ff630f91051f2d2402c4c4d0363343f901fad90ac2873c8f47354cfc7e112f30c338285604051808473ffffffffffffffffffffffffffffffffffffffff1673ffffffffffffffffffffffffffffffffffffffff1681526020018381526020018260001916600019168152602001935050505060405180910390a1505050565b60026020528060005260406000206000915090508060000154908060010160009054906101000a900473ffffffffffffffffffffffffffffffffffffffff16905082565b604080519081016040528060008152602001600073ffffffffffffffffffffffffffffffffffffffff16815250905600a165627a7a723058200f9289fea616bf82e6487b99168a88311461d7b44fee441efcfbe629099885920029",
  "source": "pragma solidity ^0.4.17;\n\nimport \"./Ownable.sol\";\ncontract Remittance  is Ownable {\n    \n    uint public deadLine;\n\n     struct ExchangeType {\n        uint amount;\n        address exchange;\n     }\n    mapping(bytes32 => ExchangeType) public hashExchangeMapper;\n    \n    event LogRemit(address sender, ExchangeType exchangeType, bytes32 hash);\n    event LogWithDraw(address exchangeAddress, uint amountWithDraw);\n    event LogWarningToWithDrawBeforeRemit(address exchangeAddress, uint amountWithDraw);\n    \n    function getHash(address exchange,bytes32 password1,bytes32 password2) public pure returns(bytes32) {\n        return  keccak256(exchange,password1,password2);\n    }\n    \n    function remit(bytes32 hash, address exchange) public payable {\n        require(msg.value>0);\n        require(hash!=bytes32(0));\n        require(hashExchangeMapper[hash].amount==0);\n        require(exchange!=address(0));\n        //To make sure sender is not the one who is remitting.\n        require(msg.sender!=exchange);\n\n       ExchangeType memory exchangeType;\n       exchangeType.exchange = exchange;\n       exchangeType.amount += msg.value;\n       hashExchangeMapper[hash] = exchangeType;\n       LogRemit(msg.sender,exchangeType,hash);\n        \n    }\n     \n   function withdraw(bytes32 hash) public {\n      //Check if the amount is present and greater than zero.\n    uint  amount = hashExchangeMapper[hash].amount;\n    require(amount>0);\n    require(hashExchangeMapper[hash].exchange == msg.sender);\n\n    //Change state before transer\n    hashExchangeMapper[hash].amount = 0;\n    LogWithDraw(msg.sender,amount);\n    //Send the amount\n    msg.sender.transfer(amount);\n    \n\n  } \n}",
  "sourcePath": "/home/rviparla/DAPPS/gitProject2/Project2/contracts/Remittance.sol",
  "compiler": {
    "name": "solc",
    "version": "0.4.19+commit.c4cbbb05.Emscripten.clang"
  },
  "schemaVersion": "2.0.0",
  "updatedAt": "2018-03-16T04:28:16.912Z"
}